{
  "contractName": "NiftyMarket",
  "abi": [
    {
      "inputs": [
        {
          "internalType": "address",
          "name": "_niftyAddress",
          "type": "address"
        }
      ],
      "stateMutability": "nonpayable",
      "type": "constructor"
    },
    {
      "inputs": [],
      "name": "NULL_ADDRESS",
      "outputs": [
        {
          "internalType": "address",
          "name": "",
          "type": "address"
        }
      ],
      "stateMutability": "view",
      "type": "function"
    },
    {
      "inputs": [
        {
          "internalType": "address",
          "name": "_newOwner",
          "type": "address"
        }
      ],
      "name": "setOwner",
      "outputs": [],
      "stateMutability": "nonpayable",
      "type": "function"
    },
    {
      "inputs": [
        {
          "internalType": "uint256",
          "name": "_tokenId",
          "type": "uint256"
        },
        {
          "internalType": "uint256",
          "name": "_initial_price",
          "type": "uint256"
        }
      ],
      "name": "enterMarket",
      "outputs": [],
      "stateMutability": "nonpayable",
      "type": "function"
    },
    {
      "inputs": [
        {
          "internalType": "uint256",
          "name": "_tokenId",
          "type": "uint256"
        }
      ],
      "name": "exitMarket",
      "outputs": [],
      "stateMutability": "nonpayable",
      "type": "function"
    },
    {
      "inputs": [
        {
          "internalType": "uint256",
          "name": "_tokenId",
          "type": "uint256"
        }
      ],
      "name": "bid",
      "outputs": [],
      "stateMutability": "payable",
      "type": "function"
    },
    {
      "inputs": [
        {
          "internalType": "uint256",
          "name": "_tokenId",
          "type": "uint256"
        }
      ],
      "name": "closeAuction",
      "outputs": [],
      "stateMutability": "nonpayable",
      "type": "function"
    },
    {
      "inputs": [
        {
          "internalType": "uint256",
          "name": "_tokenId",
          "type": "uint256"
        }
      ],
      "name": "cancelBid",
      "outputs": [],
      "stateMutability": "nonpayable",
      "type": "function"
    },
    {
      "inputs": [],
      "name": "getListedTokens",
      "outputs": [
        {
          "internalType": "uint256[]",
          "name": "",
          "type": "uint256[]"
        }
      ],
      "stateMutability": "view",
      "type": "function"
    }
  ],
  "bytecode": "0x608060405260026005553480156200001657600080fd5b5060405162001a0e38038062001a0e83398181016040528101906200003c9190620000db565b806000806101000a81548173ffffffffffffffffffffffffffffffffffffffff021916908373ffffffffffffffffffffffffffffffffffffffff16021790555033600160006101000a81548173ffffffffffffffffffffffffffffffffffffffff021916908373ffffffffffffffffffffffffffffffffffffffff1602179055505062000160565b600081519050620000d58162000146565b92915050565b600060208284031215620000f457620000f362000141565b5b60006200010484828501620000c4565b91505092915050565b60006200011a8262000121565b9050919050565b600073ffffffffffffffffffffffffffffffffffffffff82169050919050565b600080fd5b62000151816200010d565b81146200015d57600080fd5b50565b61189e80620001706000396000f3fe60806040526004361061007b5760003560e01c8063454a2ab31161004e578063454a2ab3146101265780639703ef3514610142578063de0ce17d1461016b578063e23c73bd146101965761007b565b806313af403514610080578063236ed8f3146100a9578063287366e9146100d25780632ba996a5146100fb575b600080fd5b34801561008c57600080fd5b506100a760048036038101906100a29190611147565b6101bf565b005b3480156100b557600080fd5b506100d060048036038101906100cb91906111a1565b610303565b005b3480156100de57600080fd5b506100f960048036038101906100f491906111ce565b6107fd565b005b34801561010757600080fd5b5061011061092b565b60405161011d91906113b2565b60405180910390f35b610140600480360381019061013b91906111a1565b610a2b565b005b34801561014e57600080fd5b50610169600480360381019061016491906111a1565b610bf7565b005b34801561017757600080fd5b50610180610ec2565b60405161018d9190611360565b60405180910390f35b3480156101a257600080fd5b506101bd60048036038101906101b891906111a1565b610ec7565b005b3373ffffffffffffffffffffffffffffffffffffffff16600160009054906101000a900473ffffffffffffffffffffffffffffffffffffffff1673ffffffffffffffffffffffffffffffffffffffff161461024f576040517f08c379a0000000000000000000000000000000000000000000000000000000008152600401610246906113f4565b60405180910390fd5b600073ffffffffffffffffffffffffffffffffffffffff168173ffffffffffffffffffffffffffffffffffffffff1614156102bf576040517f08c379a00000000000000000000000000000000000000000000000000000000081526004016102b690611434565b60405180910390fd5b80600160006101000a81548173ffffffffffffffffffffffffffffffffffffffff021916908373ffffffffffffffffffffffffffffffffffffffff16021790555050565b8060008060009054906101000a900473ffffffffffffffffffffffffffffffffffffffff1673ffffffffffffffffffffffffffffffffffffffff16636352211e836040518263ffffffff1660e01b81526004016103609190611474565b60206040518083038186803b15801561037857600080fd5b505afa15801561038c573d6000803e3d6000fd5b505050506040513d601f19601f820116820180604052508101906103b09190611174565b90503373ffffffffffffffffffffffffffffffffffffffff168173ffffffffffffffffffffffffffffffffffffffff1614610420576040517f08c379a000000000000000000000000000000000000000000000000000000000815260040161041790611414565b60405180910390fd5b600060036000858152602001908152602001600020805480602002602001604051908101604052809291908181526020016000905b8282101561050c57838290600052602060002090600402016040518060800160405290816000820160009054906101000a900473ffffffffffffffffffffffffffffffffffffffff1673ffffffffffffffffffffffffffffffffffffffff1673ffffffffffffffffffffffffffffffffffffffff16815260200160018201548152602001600282015481526020016003820160009054906101000a900460ff16151515158152505081526020019060010190610455565b5050505090506000815111610556576040517f08c379a000000000000000000000000000000000000000000000000000000000815260040161054d90611454565b60405180910390fd5b61055e6110c8565b60005b82518110156106185782818151811061057d5761057c61167b565b5b6020026020010151606001511580156105b7575081602001518382815181106105a9576105a861167b565b5b602002602001015160200151115b156105da578281815181106105cf576105ce61167b565b5b602002602001015191505b60018382815181106105ef576105ee61167b565b5b602002602001015160600190151590811515815250508080610610906115d4565b915050610561565b5060005b825181101561075957816000015173ffffffffffffffffffffffffffffffffffffffff168382815181106106535761065261167b565b5b60200260200101516000015173ffffffffffffffffffffffffffffffffffffffff161461074657600060646005548584815181106106945761069361167b565b5b6020026020010151602001516106aa919061150a565b6106b491906114d9565b90508382815181106106c9576106c861167b565b5b60200260200101516000015173ffffffffffffffffffffffffffffffffffffffff166108fc828685815181106107025761070161167b565b5b6020026020010151602001516107189190611564565b9081150290604051600060405180830381858888f19350505050158015610743573d6000803e3d6000fd5b50505b8080610751906115d4565b91505061061c565b5060008054906101000a900473ffffffffffffffffffffffffffffffffffffffff1673ffffffffffffffffffffffffffffffffffffffff166323b872dd338360000151886040518463ffffffff1660e01b81526004016107bb9392919061137b565b600060405180830381600087803b1580156107d557600080fd5b505af11580156107e9573d6000803e3d6000fd5b505050506107f685610ff2565b5050505050565b8160008060009054906101000a900473ffffffffffffffffffffffffffffffffffffffff1673ffffffffffffffffffffffffffffffffffffffff16636352211e836040518263ffffffff1660e01b815260040161085a9190611474565b60206040518083038186803b15801561087257600080fd5b505afa158015610886573d6000803e3d6000fd5b505050506040513d601f19601f820116820180604052508101906108aa9190611174565b90503373ffffffffffffffffffffffffffffffffffffffff168173ffffffffffffffffffffffffffffffffffffffff161461091a576040517f08c379a000000000000000000000000000000000000000000000000000000000815260040161091190611414565b60405180910390fd5b610925843385611048565b50505050565b6060806000805b600480549050811015610a2257600073ffffffffffffffffffffffffffffffffffffffff16600260006004848154811061096f5761096e61167b565b5b9060005260206000200154815260200190815260200160002060009054906101000a900473ffffffffffffffffffffffffffffffffffffffff1673ffffffffffffffffffffffffffffffffffffffff1614610a0f57600481815481106109d8576109d761167b565b5b90600052602060002001548383806109ef906115d4565b945081518110610a0257610a0161167b565b5b6020026020010181815250505b8080610a1a906115d4565b915050610932565b50819250505090565b60006002600083815260200190815260200160002060009054906101000a900473ffffffffffffffffffffffffffffffffffffffff169050600073ffffffffffffffffffffffffffffffffffffffff168173ffffffffffffffffffffffffffffffffffffffff161415610ad3576040517f08c379a0000000000000000000000000000000000000000000000000000000008152600401610aca906113d4565b60405180910390fd5b610adb6110c8565b3481602001818152505033816000019073ffffffffffffffffffffffffffffffffffffffff16908173ffffffffffffffffffffffffffffffffffffffff16815250508281604001818152505060008160600190151590811515815250506003600084815260200190815260200160002081908060018154018082558091505060019003906000526020600020906004020160009091909190915060008201518160000160006101000a81548173ffffffffffffffffffffffffffffffffffffffff021916908373ffffffffffffffffffffffffffffffffffffffff160217905550602082015181600101556040820151816002015560608201518160030160006101000a81548160ff0219169083151502179055505050505050565b600060036000838152602001908152602001600020805480602002602001604051908101604052809291908181526020016000905b82821015610ce357838290600052602060002090600402016040518060800160405290816000820160009054906101000a900473ffffffffffffffffffffffffffffffffffffffff1673ffffffffffffffffffffffffffffffffffffffff1673ffffffffffffffffffffffffffffffffffffffff16815260200160018201548152602001600282015481526020016003820160009054906101000a900460ff16151515158152505081526020019060010190610c2c565b5050505090506000815111610d2d576040517f08c379a0000000000000000000000000000000000000000000000000000000008152600401610d2490611454565b60405180910390fd5b60005b8151811015610ebd573373ffffffffffffffffffffffffffffffffffffffff16828281518110610d6357610d6261167b565b5b60200260200101516000015173ffffffffffffffffffffffffffffffffffffffff16148015610dae5750818181518110610da057610d9f61167b565b5b602002602001015160600151155b15610eaa5760006064600554848481518110610dcd57610dcc61167b565b5b602002602001015160200151610de3919061150a565b610ded91906114d9565b9050828281518110610e0257610e0161167b565b5b60200260200101516000015173ffffffffffffffffffffffffffffffffffffffff166108fc82858581518110610e3b57610e3a61167b565b5b602002602001015160200151610e519190611564565b9081150290604051600060405180830381858888f19350505050158015610e7c573d6000803e3d6000fd5b506001838381518110610e9257610e9161167b565b5b60200260200101516060019015159081151581525050505b8080610eb5906115d4565b915050610d30565b505050565b600081565b8060008060009054906101000a900473ffffffffffffffffffffffffffffffffffffffff1673ffffffffffffffffffffffffffffffffffffffff16636352211e836040518263ffffffff1660e01b8152600401610f249190611474565b60206040518083038186803b158015610f3c57600080fd5b505afa158015610f50573d6000803e3d6000fd5b505050506040513d601f19601f82011682018060405250810190610f749190611174565b90503373ffffffffffffffffffffffffffffffffffffffff168173ffffffffffffffffffffffffffffffffffffffff1614610fe4576040517f08c379a0000000000000000000000000000000000000000000000000000000008152600401610fdb90611414565b60405180910390fd5b610fed83610ff2565b505050565b60006002600083815260200190815260200160002060006101000a81548173ffffffffffffffffffffffffffffffffffffffff021916908373ffffffffffffffffffffffffffffffffffffffff16021790555050565b816002600085815260200190815260200160002060006101000a81548173ffffffffffffffffffffffffffffffffffffffff021916908373ffffffffffffffffffffffffffffffffffffffff1602179055506004839080600181540180825580915050600190039060005260206000200160009091909190915055505050565b6040518060800160405280600073ffffffffffffffffffffffffffffffffffffffff16815260200160008152602001600081526020016000151581525090565b6000813590506111178161183a565b92915050565b60008151905061112c8161183a565b92915050565b60008135905061114181611851565b92915050565b60006020828403121561115d5761115c6116aa565b5b600061116b84828501611108565b91505092915050565b60006020828403121561118a576111896116aa565b5b60006111988482850161111d565b91505092915050565b6000602082840312156111b7576111b66116aa565b5b60006111c584828501611132565b91505092915050565b600080604083850312156111e5576111e46116aa565b5b60006111f385828601611132565b925050602061120485828601611132565b9150509250929050565b600061121a8383611342565b60208301905092915050565b61122f81611598565b82525050565b60006112408261149f565b61124a81856114b7565b93506112558361148f565b8060005b8381101561128657815161126d888261120e565b9750611278836114aa565b925050600181019050611259565b5085935050505092915050565b60006112a06026836114c8565b91506112ab826116af565b604082019050919050565b60006112c36021836114c8565b91506112ce826116fe565b604082019050919050565b60006112e66032836114c8565b91506112f18261174d565b604082019050919050565b60006113096027836114c8565b91506113148261179c565b604082019050919050565b600061132c6028836114c8565b9150611337826117eb565b604082019050919050565b61134b816115ca565b82525050565b61135a816115ca565b82525050565b60006020820190506113756000830184611226565b92915050565b60006060820190506113906000830186611226565b61139d6020830185611226565b6113aa6040830184611351565b949350505050565b600060208201905081810360008301526113cc8184611235565b905092915050565b600060208201905081810360008301526113ed81611293565b9050919050565b6000602082019050818103600083015261140d816112b6565b9050919050565b6000602082019050818103600083015261142d816112d9565b9050919050565b6000602082019050818103600083015261144d816112fc565b9050919050565b6000602082019050818103600083015261146d8161131f565b9050919050565b60006020820190506114896000830184611351565b92915050565b6000819050602082019050919050565b600081519050919050565b6000602082019050919050565b600082825260208201905092915050565b600082825260208201905092915050565b60006114e4826115ca565b91506114ef836115ca565b9250826114ff576114fe61164c565b5b828204905092915050565b6000611515826115ca565b9150611520836115ca565b9250817fffffffffffffffffffffffffffffffffffffffffffffffffffffffffffffffff04831182151516156115595761155861161d565b5b828202905092915050565b600061156f826115ca565b915061157a836115ca565b92508282101561158d5761158c61161d565b5b828203905092915050565b60006115a3826115aa565b9050919050565b600073ffffffffffffffffffffffffffffffffffffffff82169050919050565b6000819050919050565b60006115df826115ca565b91507fffffffffffffffffffffffffffffffffffffffffffffffffffffffffffffffff8214156116125761161161161d565b5b600182019050919050565b7f4e487b7100000000000000000000000000000000000000000000000000000000600052601160045260246000fd5b7f4e487b7100000000000000000000000000000000000000000000000000000000600052601260045260246000fd5b7f4e487b7100000000000000000000000000000000000000000000000000000000600052603260045260246000fd5b600080fd5b7f74686520746f6b656e206973206e6f74206c6973746564206f6e20746869732060008201527f6d61726b65740000000000000000000000000000000000000000000000000000602082015250565b7f6f6e6c79206f776e65722063616e2063616c6c20746869732066756e6374696f60008201527f6e00000000000000000000000000000000000000000000000000000000000000602082015250565b7f7468652073656e646572206973206e6f7420746865206f776e6572206f66207460008201527f68652073706563696669656420746f6b656e0000000000000000000000000000602082015250565b7f746865206e6577206f776e65722063616e6e6f7420626520746865203078302060008201527f6164647265737300000000000000000000000000000000000000000000000000602082015250565b7f6e6f206269647320617661696c61626c6520666f72207468652073656c65637460008201527f656420746f6b656e000000000000000000000000000000000000000000000000602082015250565b61184381611598565b811461184e57600080fd5b50565b61185a816115ca565b811461186557600080fd5b5056fea2646970667358221220b5637ca01903afcfdee2a3d962233046e7e1fe57c45543aaf5851d970a642a7f64736f6c63430008060033",
  "immutableReferences": {},
  "source": "// SPDX-License-Identifier: MIT\npragma solidity ^0.8.6;\n\nimport \"./Nifty.sol\";\n\n/**\n * In a decentralized market you cannot use secret bids, because won't be secret\n * unless you can encrypt them somehow. Everything that appears in the contract\n * will be revealed to the users of the contract in the name of transaperency.\n */\n\n\ncontract NiftyMarket {\n\n    Nifty private nifties;\n\n    address private owner;\n\n    address constant public NULL_ADDRESS = 0x0000000000000000000000000000000000000000;\n\n    mapping( uint256 => address ) private nft_market;\n\n    mapping( uint256 => Bid [] ) private nft_bids; // will contain the history of bids for that token.\n\n    uint256 [] private nft_list; \n\n    uint256 private bid_fee = 2;\n\n    struct Bid {\n\n        address bidder;\n        uint256 amount;\n        uint256 tokenId;\n        bool expired;\n    }\n\n    constructor(address _niftyAddress) {\n       \n       nifties = Nifty(_niftyAddress); // use the contract that has been prev created\n\n       owner = msg.sender; \n\n    }\n\n    modifier onlyOwner() {\n        require(owner == msg.sender, \"only owner can call this function\");\n        _;\n    }\n\n    modifier onlyTokenOwner(uint256 _tokenId) {\n       // check if owner has a nifty\n         address nifty_owner = nifties.ownerOf(_tokenId);\n\n        require(nifty_owner == msg.sender, \"the sender is not the owner of the specified token\");\n        _;\n\n    }\n\n    function setOwner(address _newOwner) external onlyOwner() {\n\n        require(_newOwner != NULL_ADDRESS, \"the new owner cannot be the 0x0 address\");\n\n        owner = _newOwner;\n       \n    }\n\n    function enterMarket(uint256 _tokenId, uint256 _initial_price) external onlyTokenOwner(_tokenId) {\n      \n\n      _listToken(_tokenId, msg.sender, _initial_price);\n\n    }\n\n    function exitMarket(uint256 _tokenId) external onlyTokenOwner(_tokenId) {\n      \n\n      _delistToken(_tokenId);\n\n    }\n\n    function bid(uint256 _tokenId) payable external {\n\n        // Check if the token is in the market\n        address nft_owner = nft_market[_tokenId];\n\n        require(nft_owner != NULL_ADDRESS, \"the token is not listed on this market\");\n\n        // a user can bid for multiple tokens\n        Bid memory newBid;\n\n        newBid.amount = msg.value; // this amount will be returned \n        newBid.bidder = msg.sender;\n        newBid.tokenId = _tokenId;\n        newBid.expired = false;\n\n        nft_bids[_tokenId].push(newBid);\n\n    }\n\n    function closeAuction(uint256 _tokenId) external onlyTokenOwner(_tokenId) {\n\n        // iterate through the bids and choose the highest\n        Bid [] memory bids = nft_bids[_tokenId];\n\n        require(bids.length > 0, \"no bids available for the selected token\");\n\n        Bid memory winner;\n\n        for (uint i = 0; i < bids.length; i++){\n            \n            if( !bids[i].expired && bids[i].amount > winner.amount ){\n               winner = bids[i];\n            }\n            // set the bid as expired\n            bids[i].expired = true;\n            \n        }\n\n        // return amount to participants\n        for (uint i = 0; i < bids.length; i++){\n            \n            if( bids[i].bidder != winner.bidder ){\n               // return amount\n               uint256 fee = (bids[i].amount * bid_fee)/100;\n               payable(bids[i].bidder).transfer(bids[i].amount - fee); \n            }\n            \n        }\n        // transfer token to winner\n        nifties.transferFrom(msg.sender, winner.bidder, _tokenId);\n\n        // delist token from market\n        _delistToken(_tokenId);\n\n    }\n\n    function cancelBid(uint256 _tokenId) external {\n\n        // iterate through the bids\n        Bid [] memory bids = nft_bids[_tokenId];\n\n        require( bids.length > 0, \"no bids available for the selected token\");\n\n        for (uint i = 0; i < bids.length; i++){\n            \n            // check if bidder is sender and the bid did not expire\n            if( bids[i].bidder == msg.sender && !bids[i].expired ){\n               \n               // return the money\n               uint256 fee = (bids[i].amount * bid_fee)/100;\n               payable(bids[i].bidder).transfer(bids[i].amount - fee); \n               bids[i].expired = true;\n            }\n            \n        }\n\n\n    }\n\n    function _listToken(uint256 _tokenId, address _user, uint256 _initial_price) internal {\n\n      nft_market[_tokenId] = _user; // list the token in the market\n\n      nft_list.push(_tokenId);\n\n    }\n\n    function _delistToken(uint256 _tokenId) internal {\n      \n      nft_market[_tokenId] = NULL_ADDRESS;\n\n    }\n\n    function getListedTokens() external view returns(uint256 [] memory) {\n\n        uint256 [] memory listed_tokens;\n\n        uint256 count = 0;\n\n        for (uint i = 0; i < nft_list.length; i++){\n\n            if( nft_market[nft_list[i]] != NULL_ADDRESS ) {\n                listed_tokens[count++] = nft_list[i];\n            }\n        }\n\n        return listed_tokens;\n\n    }\n\n \n\n}\n\n",
  "sourcePath": "/Users/max/Projects/Orion/Defi/nft-project/contracts/NiftyMarket.sol",
  "compiler": {
    "name": "solc",
    "version": "0.8.6+commit.11564f7e.Emscripten.clang"
  },
  "schemaVersion": "3.4.1",
  "updatedAt": "2021-08-02T11:28:09.027Z",
  "devdoc": {
    "kind": "dev",
    "methods": {},
    "version": 1
  },
  "userdoc": {
    "kind": "user",
    "methods": {},
    "notice": "In a decentralized market you cannot use secret bids, because won't be secret unless you can encrypt them somehow. Everything that appears in the contract will be revealed to the users of the contract in the name of transaperency.",
    "version": 1
  }
}