{
  "contractName": "Nifty",
  "abi": [
    {
      "inputs": [
        {
          "internalType": "string",
          "name": "_name",
          "type": "string"
        },
        {
          "internalType": "string",
          "name": "_symbol",
          "type": "string"
        },
        {
          "internalType": "uint256",
          "name": "_max_supply",
          "type": "uint256"
        },
        {
          "internalType": "uint256",
          "name": "_eth_ico",
          "type": "uint256"
        }
      ],
      "stateMutability": "nonpayable",
      "type": "constructor"
    },
    {
      "anonymous": false,
      "inputs": [
        {
          "indexed": true,
          "internalType": "address",
          "name": "_owner",
          "type": "address"
        },
        {
          "indexed": true,
          "internalType": "address",
          "name": "_approved",
          "type": "address"
        },
        {
          "indexed": true,
          "internalType": "uint256",
          "name": "_tokenId",
          "type": "uint256"
        }
      ],
      "name": "Approval",
      "type": "event"
    },
    {
      "anonymous": false,
      "inputs": [
        {
          "indexed": true,
          "internalType": "address",
          "name": "_owner",
          "type": "address"
        },
        {
          "indexed": true,
          "internalType": "address",
          "name": "_operator",
          "type": "address"
        },
        {
          "indexed": false,
          "internalType": "bool",
          "name": "_approved",
          "type": "bool"
        }
      ],
      "name": "ApprovalForAll",
      "type": "event"
    },
    {
      "anonymous": false,
      "inputs": [
        {
          "indexed": false,
          "internalType": "uint256",
          "name": "token_id",
          "type": "uint256"
        },
        {
          "indexed": false,
          "internalType": "address",
          "name": "owner",
          "type": "address"
        },
        {
          "indexed": false,
          "internalType": "string",
          "name": "token_uri",
          "type": "string"
        }
      ],
      "name": "NiftyTokenMinted",
      "type": "event"
    },
    {
      "anonymous": false,
      "inputs": [
        {
          "indexed": true,
          "internalType": "address",
          "name": "_from",
          "type": "address"
        },
        {
          "indexed": true,
          "internalType": "address",
          "name": "_to",
          "type": "address"
        },
        {
          "indexed": true,
          "internalType": "uint256",
          "name": "_tokenId",
          "type": "uint256"
        }
      ],
      "name": "Transfer",
      "type": "event"
    },
    {
      "inputs": [
        {
          "internalType": "address",
          "name": "_owner",
          "type": "address"
        }
      ],
      "name": "balanceOf",
      "outputs": [
        {
          "internalType": "uint256",
          "name": "",
          "type": "uint256"
        }
      ],
      "stateMutability": "view",
      "type": "function"
    },
    {
      "inputs": [
        {
          "internalType": "uint256",
          "name": "_tokenId",
          "type": "uint256"
        }
      ],
      "name": "ownerOf",
      "outputs": [
        {
          "internalType": "address",
          "name": "",
          "type": "address"
        }
      ],
      "stateMutability": "view",
      "type": "function"
    },
    {
      "inputs": [
        {
          "internalType": "address",
          "name": "_from",
          "type": "address"
        },
        {
          "internalType": "address",
          "name": "_to",
          "type": "address"
        },
        {
          "internalType": "uint256",
          "name": "_tokenId",
          "type": "uint256"
        }
      ],
      "name": "safeTransferFrom",
      "outputs": [],
      "stateMutability": "payable",
      "type": "function"
    },
    {
      "inputs": [
        {
          "internalType": "address",
          "name": "_from",
          "type": "address"
        },
        {
          "internalType": "address",
          "name": "_to",
          "type": "address"
        },
        {
          "internalType": "uint256",
          "name": "_tokenId",
          "type": "uint256"
        },
        {
          "internalType": "bytes",
          "name": "_data",
          "type": "bytes"
        }
      ],
      "name": "safeTransferFrom",
      "outputs": [],
      "stateMutability": "payable",
      "type": "function"
    },
    {
      "inputs": [
        {
          "internalType": "address",
          "name": "_from",
          "type": "address"
        },
        {
          "internalType": "address",
          "name": "_to",
          "type": "address"
        },
        {
          "internalType": "uint256",
          "name": "_tokenId",
          "type": "uint256"
        }
      ],
      "name": "transferFrom",
      "outputs": [],
      "stateMutability": "payable",
      "type": "function"
    },
    {
      "inputs": [
        {
          "internalType": "address",
          "name": "_approved",
          "type": "address"
        },
        {
          "internalType": "uint256",
          "name": "_tokenId",
          "type": "uint256"
        }
      ],
      "name": "approve",
      "outputs": [],
      "stateMutability": "payable",
      "type": "function"
    },
    {
      "inputs": [
        {
          "internalType": "address",
          "name": "_operator",
          "type": "address"
        },
        {
          "internalType": "bool",
          "name": "_approved",
          "type": "bool"
        }
      ],
      "name": "setApprovalForAll",
      "outputs": [],
      "stateMutability": "nonpayable",
      "type": "function"
    },
    {
      "inputs": [
        {
          "internalType": "uint256",
          "name": "_tokenId",
          "type": "uint256"
        }
      ],
      "name": "getApproved",
      "outputs": [
        {
          "internalType": "address",
          "name": "",
          "type": "address"
        }
      ],
      "stateMutability": "view",
      "type": "function"
    },
    {
      "inputs": [
        {
          "internalType": "address",
          "name": "_owner",
          "type": "address"
        },
        {
          "internalType": "address",
          "name": "_operator",
          "type": "address"
        }
      ],
      "name": "isApprovedForAll",
      "outputs": [
        {
          "internalType": "bool",
          "name": "",
          "type": "bool"
        }
      ],
      "stateMutability": "view",
      "type": "function"
    },
    {
      "inputs": [],
      "name": "name",
      "outputs": [
        {
          "internalType": "string",
          "name": "",
          "type": "string"
        }
      ],
      "stateMutability": "view",
      "type": "function"
    },
    {
      "inputs": [],
      "name": "symbol",
      "outputs": [
        {
          "internalType": "string",
          "name": "",
          "type": "string"
        }
      ],
      "stateMutability": "view",
      "type": "function"
    },
    {
      "inputs": [
        {
          "internalType": "uint256",
          "name": "_tokenId",
          "type": "uint256"
        }
      ],
      "name": "tokenURI",
      "outputs": [
        {
          "internalType": "string",
          "name": "",
          "type": "string"
        }
      ],
      "stateMutability": "view",
      "type": "function"
    },
    {
      "inputs": [
        {
          "internalType": "string",
          "name": "_token_uri",
          "type": "string"
        }
      ],
      "name": "mint",
      "outputs": [
        {
          "internalType": "uint256",
          "name": "",
          "type": "uint256"
        }
      ],
      "stateMutability": "payable",
      "type": "function"
    }
  ],
  "bytecode": "0x60806040523480156200001157600080fd5b50604051620029fd380380620029fd83398181016040528101906200003791906200020f565b83600590805190602001906200004f929190620000ca565b50826006908051906020019062000068929190620000ca565b5081600781905550600060088190555033600a60006101000a81548173ffffffffffffffffffffffffffffffffffffffff021916908373ffffffffffffffffffffffffffffffffffffffff160217905550806009819055505050505062000467565b828054620000d8906200035e565b90600052602060002090601f016020900481019282620000fc576000855562000148565b82601f106200011757805160ff191683800117855562000148565b8280016001018555821562000148579182015b82811115620001475782518255916020019190600101906200012a565b5b5090506200015791906200015b565b5090565b5b80821115620001765760008160009055506001016200015c565b5090565b6000620001916200018b84620002e8565b620002bf565b905082815260208101848484011115620001b057620001af6200042d565b5b620001bd84828562000328565b509392505050565b600082601f830112620001dd57620001dc62000428565b5b8151620001ef8482602086016200017a565b91505092915050565b60008151905062000209816200044d565b92915050565b600080600080608085870312156200022c576200022b62000437565b5b600085015167ffffffffffffffff8111156200024d576200024c62000432565b5b6200025b87828801620001c5565b945050602085015167ffffffffffffffff8111156200027f576200027e62000432565b5b6200028d87828801620001c5565b9350506040620002a087828801620001f8565b9250506060620002b387828801620001f8565b91505092959194509250565b6000620002cb620002de565b9050620002d9828262000394565b919050565b6000604051905090565b600067ffffffffffffffff821115620003065762000305620003f9565b5b62000311826200043c565b9050602081019050919050565b6000819050919050565b60005b83811015620003485780820151818401526020810190506200032b565b8381111562000358576000848401525b50505050565b600060028204905060018216806200037757607f821691505b602082108114156200038e576200038d620003ca565b5b50919050565b6200039f826200043c565b810181811067ffffffffffffffff82111715620003c157620003c0620003f9565b5b80604052505050565b7f4e487b7100000000000000000000000000000000000000000000000000000000600052602260045260246000fd5b7f4e487b7100000000000000000000000000000000000000000000000000000000600052604160045260246000fd5b600080fd5b600080fd5b600080fd5b600080fd5b6000601f19601f8301169050919050565b62000458816200031e565b81146200046457600080fd5b50565b61258680620004776000396000f3fe6080604052600436106100c25760003560e01c806370a082311161007f578063b88d4fde11610059578063b88d4fde14610251578063c87b56dd1461026d578063d85d3d27146102aa578063e985e9c5146102da576100c2565b806370a08231146101c057806395d89b41146101fd578063a22cb46514610228576100c2565b806306fdde03146100c7578063081812fc146100f2578063095ea7b31461012f57806323b872dd1461014b57806342842e0e146101675780636352211e14610183575b600080fd5b3480156100d357600080fd5b506100dc610317565b6040516100e99190611b55565b60405180910390f35b3480156100fe57600080fd5b5061011960048036038101906101149190611835565b6103a9565b6040516101269190611ad5565b60405180910390f35b610149600480360381019061014491906117ac565b610488565b005b61016560048036038101906101609190611696565b6105ef565b005b610181600480360381019061017c9190611696565b6105f4565b005b34801561018f57600080fd5b506101aa60048036038101906101a59190611835565b610668565b6040516101b79190611ad5565b60405180910390f35b3480156101cc57600080fd5b506101e760048036038101906101e29190611629565b61071a565b6040516101f49190611d37565b60405180910390f35b34801561020957600080fd5b506102126107d1565b60405161021f9190611b55565b60405180910390f35b34801561023457600080fd5b5061024f600480360381019061024a919061176c565b610863565b005b61026b600480360381019061026691906116e9565b610977565b005b34801561027957600080fd5b50610294600480360381019061028f9190611835565b610d8b565b6040516102a19190611b55565b60405180910390f35b6102c460048036038101906102bf91906117ec565b610ed6565b6040516102d19190611d37565b60405180910390f35b3480156102e657600080fd5b5061030160048036038101906102fc9190611656565b610ffe565b60405161030e9190611b3a565b60405180910390f35b60606005805461032690611f58565b80601f016020809104026020016040519081016040528092919081815260200182805461035290611f58565b801561039f5780601f106103745761010080835404028352916020019161039f565b820191906000526020600020905b81548152906001019060200180831161038257829003601f168201915b5050505050905090565b60008073ffffffffffffffffffffffffffffffffffffffff166001600084815260200190815260200160002060009054906101000a900473ffffffffffffffffffffffffffffffffffffffff1673ffffffffffffffffffffffffffffffffffffffff16141561044d576040517f08c379a000000000000000000000000000000000000000000000000000000000815260040161044490611c77565b60405180910390fd5b6002600083815260200190815260200160002060009054906101000a900473ffffffffffffffffffffffffffffffffffffffff169050919050565b600073ffffffffffffffffffffffffffffffffffffffff168273ffffffffffffffffffffffffffffffffffffffff1614156104f8576040517f08c379a00000000000000000000000000000000000000000000000000000000081526004016104ef90611cf7565b60405180910390fd5b3373ffffffffffffffffffffffffffffffffffffffff166001600083815260200190815260200160002060009054906101000a900473ffffffffffffffffffffffffffffffffffffffff1673ffffffffffffffffffffffffffffffffffffffff1614610599576040517f08c379a000000000000000000000000000000000000000000000000000000000815260040161059090611d17565b60405180910390fd5b816002600083815260200190815260200160002060006101000a81548173ffffffffffffffffffffffffffffffffffffffff021916908373ffffffffffffffffffffffffffffffffffffffff1602179055505050565b505050565b3073ffffffffffffffffffffffffffffffffffffffff1663b88d4fde8484846040518463ffffffff1660e01b815260040161063193929190611af0565b600060405180830381600087803b15801561064b57600080fd5b505af115801561065f573d6000803e3d6000fd5b50505050505050565b6000806001600084815260200190815260200160002060009054906101000a900473ffffffffffffffffffffffffffffffffffffffff169050600073ffffffffffffffffffffffffffffffffffffffff168173ffffffffffffffffffffffffffffffffffffffff161415610711576040517f08c379a000000000000000000000000000000000000000000000000000000000815260040161070890611c97565b60405180910390fd5b80915050919050565b60008073ffffffffffffffffffffffffffffffffffffffff168273ffffffffffffffffffffffffffffffffffffffff16141561078b576040517f08c379a000000000000000000000000000000000000000000000000000000000815260040161078290611c57565b60405180910390fd5b6000808373ffffffffffffffffffffffffffffffffffffffff1673ffffffffffffffffffffffffffffffffffffffff168152602001908152602001600020549050919050565b6060600680546107e090611f58565b80601f016020809104026020016040519081016040528092919081815260200182805461080c90611f58565b80156108595780601f1061082e57610100808354040283529160200191610859565b820191906000526020600020905b81548152906001019060200180831161083c57829003601f168201915b5050505050905090565b6001151581151514156108f35781600360003373ffffffffffffffffffffffffffffffffffffffff1673ffffffffffffffffffffffffffffffffffffffff16815260200190815260200160002060006101000a81548173ffffffffffffffffffffffffffffffffffffffff021916908373ffffffffffffffffffffffffffffffffffffffff160217905550610973565b6000600360003373ffffffffffffffffffffffffffffffffffffffff1673ffffffffffffffffffffffffffffffffffffffff16815260200190815260200160002060006101000a81548173ffffffffffffffffffffffffffffffffffffffff021916908373ffffffffffffffffffffffffffffffffffffffff1602179055505b5050565b60006001600084815260200190815260200160002060009054906101000a900473ffffffffffffffffffffffffffffffffffffffff169050600073ffffffffffffffffffffffffffffffffffffffff168173ffffffffffffffffffffffffffffffffffffffff161415610a1f576040517f08c379a0000000000000000000000000000000000000000000000000000000008152600401610a1690611cb7565b60405180910390fd5b600073ffffffffffffffffffffffffffffffffffffffff168473ffffffffffffffffffffffffffffffffffffffff161415610a8f576040517f08c379a0000000000000000000000000000000000000000000000000000000008152600401610a8690611bd7565b60405180910390fd5b60008173ffffffffffffffffffffffffffffffffffffffff163373ffffffffffffffffffffffffffffffffffffffff161480610b555750600360008773ffffffffffffffffffffffffffffffffffffffff1673ffffffffffffffffffffffffffffffffffffffff16815260200190815260200160002060009054906101000a900473ffffffffffffffffffffffffffffffffffffffff1673ffffffffffffffffffffffffffffffffffffffff163373ffffffffffffffffffffffffffffffffffffffff16145b905080610b97576040517f08c379a0000000000000000000000000000000000000000000000000000000008152600401610b8e90611c37565b60405180910390fd5b846001600086815260200190815260200160002060006101000a81548173ffffffffffffffffffffffffffffffffffffffff021916908373ffffffffffffffffffffffffffffffffffffffff16021790555060016000808873ffffffffffffffffffffffffffffffffffffffff1673ffffffffffffffffffffffffffffffffffffffff16815260200190815260200160002054610c349190611e9a565b6000808873ffffffffffffffffffffffffffffffffffffffff1673ffffffffffffffffffffffffffffffffffffffff1681526020019081526020016000208190555060016000808773ffffffffffffffffffffffffffffffffffffffff1673ffffffffffffffffffffffffffffffffffffffff16815260200190815260200160002054610cc19190611e44565b6000808773ffffffffffffffffffffffffffffffffffffffff1673ffffffffffffffffffffffffffffffffffffffff16815260200190815260200160002081905550846004600086815260200190815260200160002060020160006101000a81548173ffffffffffffffffffffffffffffffffffffffff021916908373ffffffffffffffffffffffffffffffffffffffff16021790555082600460008681526020019081526020016000206001019080519060200190610d829291906113a3565b50505050505050565b6060600073ffffffffffffffffffffffffffffffffffffffff166001600084815260200190815260200160002060009054906101000a900473ffffffffffffffffffffffffffffffffffffffff1673ffffffffffffffffffffffffffffffffffffffff161415610e30576040517f08c379a0000000000000000000000000000000000000000000000000000000008152600401610e2790611bb7565b60405180910390fd5b600460008381526020019081526020016000206003018054610e5190611f58565b80601f0160208091040260200160405190810160405280929190818152602001828054610e7d90611f58565b8015610eca5780601f10610e9f57610100808354040283529160200191610eca565b820191906000526020600020905b815481529060010190602001808311610ead57829003601f168201915b50505050509050919050565b6000600a60009054906101000a900473ffffffffffffffffffffffffffffffffffffffff1673ffffffffffffffffffffffffffffffffffffffff163373ffffffffffffffffffffffffffffffffffffffff1614610f68576040517f08c379a0000000000000000000000000000000000000000000000000000000008152600401610f5f90611b77565b60405180910390fd5b600954341015610fad576040517f08c379a0000000000000000000000000000000000000000000000000000000008152600401610fa490611c17565b60405180910390fd5b6000610fb883611175565b90507f388b726219ecc700b62f0d5f95e4dcbda7d4a0fa43aff493d743b7f9590b0d22813385604051610fed93929190611d52565b60405180910390a180915050919050565b60008073ffffffffffffffffffffffffffffffffffffffff168373ffffffffffffffffffffffffffffffffffffffff16141561106f576040517f08c379a000000000000000000000000000000000000000000000000000000000815260040161106690611bf7565b60405180910390fd5b600073ffffffffffffffffffffffffffffffffffffffff168273ffffffffffffffffffffffffffffffffffffffff1614156110df576040517f08c379a00000000000000000000000000000000000000000000000000000000081526004016110d690611b97565b60405180910390fd5b8173ffffffffffffffffffffffffffffffffffffffff16600360008573ffffffffffffffffffffffffffffffffffffffff1673ffffffffffffffffffffffffffffffffffffffff16815260200190815260200160002060009054906101000a900473ffffffffffffffffffffffffffffffffffffffff1673ffffffffffffffffffffffffffffffffffffffff1614905092915050565b6000600754600854106111bd576040517f08c379a00000000000000000000000000000000000000000000000000000000081526004016111b490611cd7565b60405180910390fd5b600860008154809291906111d090611fbb565b9190505590506111de611429565b80600001515082816060018190525033816040019073ffffffffffffffffffffffffffffffffffffffff16908173ffffffffffffffffffffffffffffffffffffffff1681525050806004600084815260200190815260200160002060008201518160000155602082015181600101908051906020019061125f9291906113a3565b5060408201518160020160006101000a81548173ffffffffffffffffffffffffffffffffffffffff021916908373ffffffffffffffffffffffffffffffffffffffff16021790555060608201518160030190805190602001906112c3929190611467565b50905050336001600084815260200190815260200160002060006101000a81548173ffffffffffffffffffffffffffffffffffffffff021916908373ffffffffffffffffffffffffffffffffffffffff16021790555060016000803373ffffffffffffffffffffffffffffffffffffffff1673ffffffffffffffffffffffffffffffffffffffff16815260200190815260200160002054016000803373ffffffffffffffffffffffffffffffffffffffff1673ffffffffffffffffffffffffffffffffffffffff1681526020019081526020016000208190555050919050565b8280546113af90611f58565b90600052602060002090601f0160209004810192826113d15760008555611418565b82601f106113ea57805160ff1916838001178555611418565b82800160010185558215611418579182015b828111156114175782518255916020019190600101906113fc565b5b50905061142591906114ed565b5090565b60405180608001604052806000815260200160608152602001600073ffffffffffffffffffffffffffffffffffffffff168152602001606081525090565b82805461147390611f58565b90600052602060002090601f01602090048101928261149557600085556114dc565b82601f106114ae57805160ff19168380011785556114dc565b828001600101855582156114dc579182015b828111156114db5782518255916020019190600101906114c0565b5b5090506114e991906114ed565b5090565b5b808211156115065760008160009055506001016114ee565b5090565b600061151d61151884611db5565b611d90565b90508281526020810184848401111561153957611538612096565b5b611544848285611f16565b509392505050565b600061155f61155a84611de6565b611d90565b90508281526020810184848401111561157b5761157a612096565b5b611586848285611f16565b509392505050565b60008135905061159d8161250b565b92915050565b6000813590506115b281612522565b92915050565b600082601f8301126115cd576115cc612091565b5b81356115dd84826020860161150a565b91505092915050565b600082601f8301126115fb576115fa612091565b5b813561160b84826020860161154c565b91505092915050565b60008135905061162381612539565b92915050565b60006020828403121561163f5761163e6120a0565b5b600061164d8482850161158e565b91505092915050565b6000806040838503121561166d5761166c6120a0565b5b600061167b8582860161158e565b925050602061168c8582860161158e565b9150509250929050565b6000806000606084860312156116af576116ae6120a0565b5b60006116bd8682870161158e565b93505060206116ce8682870161158e565b92505060406116df86828701611614565b9150509250925092565b60008060008060808587031215611703576117026120a0565b5b60006117118782880161158e565b94505060206117228782880161158e565b935050604061173387828801611614565b925050606085013567ffffffffffffffff8111156117545761175361209b565b5b611760878288016115b8565b91505092959194509250565b60008060408385031215611783576117826120a0565b5b60006117918582860161158e565b92505060206117a2858286016115a3565b9150509250929050565b600080604083850312156117c3576117c26120a0565b5b60006117d18582860161158e565b92505060206117e285828601611614565b9150509250929050565b600060208284031215611802576118016120a0565b5b600082013567ffffffffffffffff8111156118205761181f61209b565b5b61182c848285016115e6565b91505092915050565b60006020828403121561184b5761184a6120a0565b5b600061185984828501611614565b91505092915050565b61186b81611ece565b82525050565b61187a81611ee0565b82525050565b600061188b82611e17565b6118958185611e33565b93506118a5818560208601611f25565b6118ae816120a5565b840191505092915050565b60006118c6602e83611e33565b91506118d1826120b6565b604082019050919050565b60006118e9602383611e33565b91506118f482612105565b604082019050919050565b600061190c602283611e33565b915061191782612154565b604082019050919050565b600061192f602983611e33565b915061193a826121a3565b604082019050919050565b6000611952602083611e33565b915061195d826121f2565b602082019050919050565b6000611975603b83611e33565b91506119808261221b565b604082019050919050565b6000611998603d83611e33565b91506119a38261226a565b604082019050919050565b60006119bb602c83611e33565b91506119c6826122b9565b604082019050919050565b60006119de601483611e33565b91506119e982612308565b602082019050919050565b6000611a01604183611e33565b9150611a0c82612331565b606082019050919050565b6000611a24604383611e33565b9150611a2f826123a6565b606082019050919050565b6000611a47602e83611e33565b9150611a528261241b565b604082019050919050565b6000611a6a602f83611e33565b9150611a758261246a565b604082019050919050565b6000611a8d600083611e22565b9150611a98826124b9565b600082019050919050565b6000611ab0602983611e33565b9150611abb826124bc565b604082019050919050565b611acf81611f0c565b82525050565b6000602082019050611aea6000830184611862565b92915050565b6000608082019050611b056000830186611862565b611b126020830185611862565b611b1f6040830184611ac6565b8181036060830152611b3081611a80565b9050949350505050565b6000602082019050611b4f6000830184611871565b92915050565b60006020820190508181036000830152611b6f8184611880565b905092915050565b60006020820190508181036000830152611b90816118b9565b9050919050565b60006020820190508181036000830152611bb0816118dc565b9050919050565b60006020820190508181036000830152611bd0816118ff565b9050919050565b60006020820190508181036000830152611bf081611922565b9050919050565b60006020820190508181036000830152611c1081611945565b9050919050565b60006020820190508181036000830152611c3081611968565b9050919050565b60006020820190508181036000830152611c508161198b565b9050919050565b60006020820190508181036000830152611c70816119ae565b9050919050565b60006020820190508181036000830152611c90816119d1565b9050919050565b60006020820190508181036000830152611cb0816119f4565b9050919050565b60006020820190508181036000830152611cd081611a17565b9050919050565b60006020820190508181036000830152611cf081611a3a565b9050919050565b60006020820190508181036000830152611d1081611a5d565b9050919050565b60006020820190508181036000830152611d3081611aa3565b9050919050565b6000602082019050611d4c6000830184611ac6565b92915050565b6000606082019050611d676000830186611ac6565b611d746020830185611862565b8181036040830152611d868184611880565b9050949350505050565b6000611d9a611dab565b9050611da68282611f8a565b919050565b6000604051905090565b600067ffffffffffffffff821115611dd057611dcf612062565b5b611dd9826120a5565b9050602081019050919050565b600067ffffffffffffffff821115611e0157611e00612062565b5b611e0a826120a5565b9050602081019050919050565b600081519050919050565b600082825260208201905092915050565b600082825260208201905092915050565b6000611e4f82611f0c565b9150611e5a83611f0c565b9250827fffffffffffffffffffffffffffffffffffffffffffffffffffffffffffffffff03821115611e8f57611e8e612004565b5b828201905092915050565b6000611ea582611f0c565b9150611eb083611f0c565b925082821015611ec357611ec2612004565b5b828203905092915050565b6000611ed982611eec565b9050919050565b60008115159050919050565b600073ffffffffffffffffffffffffffffffffffffffff82169050919050565b6000819050919050565b82818337600083830152505050565b60005b83811015611f43578082015181840152602081019050611f28565b83811115611f52576000848401525b50505050565b60006002820490506001821680611f7057607f821691505b60208210811415611f8457611f83612033565b5b50919050565b611f93826120a5565b810181811067ffffffffffffffff82111715611fb257611fb1612062565b5b80604052505050565b6000611fc682611f0c565b91507fffffffffffffffffffffffffffffffffffffffffffffffffffffffffffffffff821415611ff957611ff8612004565b5b600182019050919050565b7f4e487b7100000000000000000000000000000000000000000000000000000000600052601160045260246000fd5b7f4e487b7100000000000000000000000000000000000000000000000000000000600052602260045260246000fd5b7f4e487b7100000000000000000000000000000000000000000000000000000000600052604160045260246000fd5b600080fd5b600080fd5b600080fd5b600080fd5b6000601f19601f8301169050919050565b7f6f6e6c792074686520636f6e7472616374206f776e65722063616e2063616c6c60008201527f20746869732066756e6374696f6e000000000000000000000000000000000000602082015250565b7f6f70657261746f722063616e6e6f74206265207468656e20307830206164647260008201527f6573730000000000000000000000000000000000000000000000000000000000602082015250565b7f746f6b656e204944206973206e6f7420612076616c6964206964656e7469666960008201527f6572000000000000000000000000000000000000000000000000000000000000602082015250565b7f74686520746f20616464726573732063616e6e6f7420626520746865204e554c60008201527f4c20616464726573730000000000000000000000000000000000000000000000602082015250565b7f6f776e65722063616e6e6f74206265207468656e203078302061646472657373600082015250565b7f74686520616d6f756e74206f662065746820737065636966696564206973206260008201527f656c6f77207468652069636f20666f72207468697320746f6b656e0000000000602082015250565b7f7468652066726f6d2061646472657373206973206e6f7420746865204e46542060008201527f6f776e6572206f7220616e20617070726f766564206f70657261746f72000000602082015250565b7f696e76616c6964206f776e6572736869702c2063616e6e6f742062652074686560008201527f2030783020616464726573730000000000000000000000000000000000000000602082015250565b7f4e6f7420612076616c696420746f6b656e206964000000000000000000000000600082015250565b7f696e76616c6964206f776e6572736869702e207468697320746f6b656e20696460008201527f206973206173736f63696174656420746f20746865203078302061646472657360208201527f7300000000000000000000000000000000000000000000000000000000000000604082015250565b7f7468652073706563696669656420746f6b656e20646f6573206e6f742068617660008201527f6520616e79206f776e6572206f72206973206e6f7420612076616c696420746f60208201527f6b656e0000000000000000000000000000000000000000000000000000000000604082015250565b7f756e61626c6520746f206d696e74206d6f726520746f6b656e732e204d61782060008201527f737570706c792072656163686564000000000000000000000000000000000000602082015250565b7f74686520617070726f76656420616464726573732063616e6e6f74206265207460008201527f6865204e554c4c20616464726573730000000000000000000000000000000000602082015250565b50565b7f746865206d6573736167652073656e646572206973206e6f742074686520746f60008201527f6b656e206f776e65720000000000000000000000000000000000000000000000602082015250565b61251481611ece565b811461251f57600080fd5b50565b61252b81611ee0565b811461253657600080fd5b50565b61254281611f0c565b811461254d57600080fd5b5056fea2646970667358221220c80b3c1a0fdc97b49efdc9c3342b05f0b608f268d37b4c0a5236eba49dc26c3764736f6c63430008060033",
  "immutableReferences": {},
  "source": "// SPDX-License-Identifier: MIT\npragma solidity ^0.8.6;\n\nimport \"./IERC721.sol\";\n\ncontract Nifty is ERC721, ERC721Metadata {\n\n    mapping (address => uint256 ) private balances; // address to amount of NFT\n\n    mapping (uint256 => address ) private ownership; // token Id to owner address\n\n    mapping (uint256 => address ) private approvals; // token Id to approved address \n\n    mapping( address => address ) private operators; // approved operator for the address \n\n    mapping (uint256 => NiftyToken ) private nifties;\n\n    string private t_name;\n\n    string private t_symbol;\n\n    uint256 private max_supply;\n\n    uint256 private tokens_minted;\n\n    uint256 private eth_ico;\n\n    address owner;\n\n    struct NiftyToken {\n\n        uint256 token_id;\n\n        bytes data;\n\n        address nft_owner;\n\n        string token_uri;\n    }\n\n\n    event NiftyTokenMinted(uint256 token_id, address owner, string token_uri);\n\n\n    \n    constructor(string memory _name, string memory _symbol, uint256 _max_supply, uint256 _eth_ico) {\n       \n       t_name = _name;\n       t_symbol = _symbol;\n       max_supply = _max_supply;\n       tokens_minted = 0; \n       owner = msg.sender;\n       eth_ico = _eth_ico;\n\n    }\n\n\n    modifier onlyOwner() {\n        require(msg.sender == owner, \"only the contract owner can call this function\");\n        _;\n    }\n\n\n    /// @notice Count all NFTs assigned to an owner\n    /// @dev NFTs assigned to the zero address are considered invalid, and this\n    ///  function throws for queries about the zero address.\n    /// @param _owner An address for whom to query the balance\n    /// @return The number of NFTs owned by `_owner`, possibly zero\n    function balanceOf(address _owner) override external view returns (uint256) {\n        \n        require( _owner != 0x0000000000000000000000000000000000000000 , \"invalid ownership, cannot be the 0x0 address\");\n\n        return balances[_owner];\n    }\n\n    /// @notice Find the owner of an NFT\n    /// @dev NFTs assigned to zero address are considered invalid, and queries\n    ///  about them do throw.\n    /// @param _tokenId The identifier for an NFT\n    /// @return The address of the owner of the NFT\n    function ownerOf(uint256 _tokenId) override external view returns (address) {\n\n        address _owner = ownership[_tokenId];\n        \n        require( _owner != 0x0000000000000000000000000000000000000000 , \"invalid ownership. this token id is associated to the 0x0 address\");\n        \n        return _owner;\n    }\n\n    /// @notice Transfers the ownership of an NFT from one address to another address\n    /// @dev Throws unless `msg.sender` is the current owner, an authorized\n    ///  operator, or the approved address for this NFT. Throws if `_from` is\n    ///  not the current owner. Throws if `_to` is the zero address. Throws if\n    ///  `_tokenId` is not a valid NFT. When transfer is complete, this function\n    ///  checks if `_to` is a smart contract (code size > 0). If so, it calls\n    ///  `onERC721Received` on `_to` and throws if the return value is not\n    ///  `bytes4(keccak256(\"onERC721Received(address,address,uint256,bytes)\"))`.\n    /// @param _from The current owner of the NFT\n    /// @param _to The new owner\n    /// @param _tokenId The NFT to transfer\n    /// @param _data Additional data with no specified format, sent in call to `_to`\n    function safeTransferFrom(address _from, address _to, uint256 _tokenId, bytes memory _data) override external payable {\n\n        address current_owner = ownership[_tokenId];\n\n        require(current_owner != 0x0000000000000000000000000000000000000000, \"the specified token does not have any owner or is not a valid token\");\n\n        require(_to != 0x0000000000000000000000000000000000000000, \"the to address cannot be the NULL address\");\n\n        bool transfer_approved = msg.sender == current_owner || msg.sender == operators[_from];\n\n        require(transfer_approved, \"the from address is not the NFT owner or an approved operator\");\n\n        ownership[_tokenId] = _to; // given I have an array of nifties this is probably redundant\n\n        balances[_from] = balances[_from] - 1;\n\n        balances[_to] = balances[_to] + 1;\n\n        nifties[_tokenId].nft_owner = _to;\n\n        nifties[_tokenId].data = _data; // not sure this is correct.\n\n    }\n\n    /// @notice Transfers the ownership of an NFT from one address to another address\n    /// @dev This works identically to the other function with an extra data parameter,\n    ///  except this function just sets data to \"\".\n    /// @param _from The current owner of the NFT\n    /// @param _to The new owner\n    /// @param _tokenId The NFT to transfer\n    function safeTransferFrom(address _from, address _to, uint256 _tokenId) override external payable {\n         this.safeTransferFrom(_from, _to, _tokenId, \"\");\n    }\n\n    /// @notice Transfer ownership of an NFT -- THE CALLER IS RESPONSIBLE\n    ///  TO CONFIRM THAT `_to` IS CAPABLE OF RECEIVING NFTS OR ELSE\n    ///  THEY MAY BE PERMANENTLY LOST\n    /// @dev Throws unless `msg.sender` is the current owner, an authorized\n    ///  operator, or the approved address for this NFT. Throws if `_from` is\n    ///  not the current owner. Throws if `_to` is the zero address. Throws if\n    ///  `_tokenId` is not a valid NFT.\n    /// @param _from The current owner of the NFT\n    /// @param _to The new owner\n    /// @param _tokenId The NFT to transfer\n    function transferFrom(address _from, address _to, uint256 _tokenId) override external payable {\n\n    }\n\n    /// @notice Change or reaffirm the approved address for an NFT\n    /// @dev The zero address indicates there is no approved address.\n    ///  Throws unless `msg.sender` is the current NFT owner, or an authorized\n    ///  operator of the current owner.\n    /// @param _approved The new approved NFT controller\n    /// @param _tokenId The NFT to approve\n    function approve(address _approved, uint256 _tokenId) override external payable {\n\n        require(_approved != 0x0000000000000000000000000000000000000000, \"the approved address cannot be the NULL address\");\n\n        require(ownership[_tokenId] == msg.sender, \"the message sender is not the token owner\");\n\n        approvals[_tokenId] = _approved;\n\n    }\n\n    /// @notice Enable or disable approval for a third party (\"operator\") to manage\n    ///  all of `msg.sender`'s assets\n    /// @dev Emits the ApprovalForAll event. The contract MUST allow\n    ///  multiple operators per owner.\n    /// @param _operator Address to add to the set of authorized operators\n    /// @param _approved True if the operator is approved, false to revoke approval\n    function setApprovalForAll(address _operator, bool _approved) override external {\n        \n        if( _approved == true ) {\n           operators[msg.sender] = _operator;\n        }\n        else {\n           operators[msg.sender] = 0x0000000000000000000000000000000000000000;\n        }\n\n    }\n\n    /// @notice Get the approved address for a single NFT\n    /// @dev Throws if `_tokenId` is not a valid NFT.\n    /// @param _tokenId The NFT to find the approved address for\n    /// @return The approved address for this NFT, or the zero address if there is none\n    function getApproved(uint256 _tokenId) override external view returns (address) {\n        \n        require(ownership[_tokenId] != 0x0000000000000000000000000000000000000000, \"Not a valid token id\");\n        \n        return approvals[_tokenId];\n    }\n\n    /// @notice Query if an address is an authorized operator for another address\n    /// @param _owner The address that owns the NFTs\n    /// @param _operator The address that acts on behalf of the owner\n    /// @return True if `_operator` is an approved operator for `_owner`, false otherwise\n    function isApprovedForAll(address _owner, address _operator) override external view returns (bool) {\n        \n        require( _owner != 0x0000000000000000000000000000000000000000, \"owner cannot be then 0x0 address\");\n        require( _operator != 0x0000000000000000000000000000000000000000, \"operator cannot be then 0x0 address\");\n        return (operators[_owner] == _operator);\n        \n    }\n\n      /// @notice A descriptive name for a collection of NFTs in this contract\n    function name() override external view returns (string memory) {\n      return t_name;\n    }\n\n    /// @notice An abbreviated name for NFTs in this contract\n    function symbol() override external view returns (string memory) {\n       return t_symbol;\n    }\n\n    /// @notice A distinct Uniform Resource Identifier (URI) for a given asset.\n    /// @dev Throws if `_tokenId` is not a valid NFT. URIs are defined in RFC\n    ///  3986. The URI may point to a JSON file that conforms to the \"ERC721\n    ///  Metadata JSON Schema\".\n    function tokenURI(uint256 _tokenId) override external view returns ( string memory) {\n        // check if tokenId is valid\n        require(ownership[_tokenId] != 0x0000000000000000000000000000000000000000, \"token ID is not a valid identifier\");\n\n        return nifties[_tokenId].token_uri;\n    }\n\n\n    function _mint(string memory _token_uri) internal returns ( uint256 token_id) {\n\n        require( tokens_minted < max_supply, \"unable to mint more tokens. Max supply reached\" );\n\n        // generate a new tokenId\n        token_id = tokens_minted++;\n\n        NiftyToken memory token;\n\n        token.token_id;\n        token.token_uri = _token_uri;  // shall I check for uri uniqueness? \n        token.nft_owner = msg.sender; // the owner of the token is the contract owner\n\n        nifties[token_id] = token;\n\n        // set ownership\n        ownership[token_id] = msg.sender;\n\n        unchecked {\n\n            balances[msg.sender] = balances[msg.sender] + 1;\n            \n        }\n        \n\n        return token_id;\n\n    }\n\n    function mint(string memory _token_uri) external payable onlyOwner returns (uint256) {\n\n         require( msg.value >= eth_ico, \"the amount of eth specified is below the ico for this token\");\n         \n         uint256 token_id = _mint(_token_uri);\n\n         emit NiftyTokenMinted(token_id, msg.sender, _token_uri);\n\n         return token_id;\n\n    }\n\n    function _burn(uint256 _token_id) internal returns ( bool ) {\n       \n       // burning means: remove it from nifities, etc..\n       address _owner = ownership[_token_id];\n\n       require(_owner != 0x0000000000000000000000000000000000000000, \"this token id is invalid. Won't be burned\");\n\n       NiftyToken storage nifty = nifties[_token_id];\n\n       nifty.nft_owner = 0x0000000000000000000000000000000000000000;\n       nifty.token_id = 0;\n       \n       return false;\n    }\n}",
  "sourcePath": "/Users/max/Projects/Orion/Defi/nft-project/contracts/Nifty.sol",
  "compiler": {
    "name": "solc",
    "version": "0.8.6+commit.11564f7e.Emscripten.clang"
  },
  "schemaVersion": "3.4.1",
  "updatedAt": "2021-08-02T11:28:09.008Z",
  "devdoc": {
    "kind": "dev",
    "methods": {
      "approve(address,uint256)": {
        "details": "The zero address indicates there is no approved address.  Throws unless `msg.sender` is the current NFT owner, or an authorized  operator of the current owner.",
        "params": {
          "_approved": "The new approved NFT controller",
          "_tokenId": "The NFT to approve"
        }
      },
      "balanceOf(address)": {
        "details": "NFTs assigned to the zero address are considered invalid, and this  function throws for queries about the zero address.",
        "params": {
          "_owner": "An address for whom to query the balance"
        },
        "returns": {
          "_0": "The number of NFTs owned by `_owner`, possibly zero"
        }
      },
      "getApproved(uint256)": {
        "details": "Throws if `_tokenId` is not a valid NFT.",
        "params": {
          "_tokenId": "The NFT to find the approved address for"
        },
        "returns": {
          "_0": "The approved address for this NFT, or the zero address if there is none"
        }
      },
      "isApprovedForAll(address,address)": {
        "params": {
          "_operator": "The address that acts on behalf of the owner",
          "_owner": "The address that owns the NFTs"
        },
        "returns": {
          "_0": "True if `_operator` is an approved operator for `_owner`, false otherwise"
        }
      },
      "ownerOf(uint256)": {
        "details": "NFTs assigned to zero address are considered invalid, and queries  about them do throw.",
        "params": {
          "_tokenId": "The identifier for an NFT"
        },
        "returns": {
          "_0": "The address of the owner of the NFT"
        }
      },
      "safeTransferFrom(address,address,uint256)": {
        "details": "This works identically to the other function with an extra data parameter,  except this function just sets data to \"\".",
        "params": {
          "_from": "The current owner of the NFT",
          "_to": "The new owner",
          "_tokenId": "The NFT to transfer"
        }
      },
      "safeTransferFrom(address,address,uint256,bytes)": {
        "details": "Throws unless `msg.sender` is the current owner, an authorized  operator, or the approved address for this NFT. Throws if `_from` is  not the current owner. Throws if `_to` is the zero address. Throws if  `_tokenId` is not a valid NFT. When transfer is complete, this function  checks if `_to` is a smart contract (code size > 0). If so, it calls  `onERC721Received` on `_to` and throws if the return value is not  `bytes4(keccak256(\"onERC721Received(address,address,uint256,bytes)\"))`.",
        "params": {
          "_data": "Additional data with no specified format, sent in call to `_to`",
          "_from": "The current owner of the NFT",
          "_to": "The new owner",
          "_tokenId": "The NFT to transfer"
        }
      },
      "setApprovalForAll(address,bool)": {
        "details": "Emits the ApprovalForAll event. The contract MUST allow  multiple operators per owner.",
        "params": {
          "_approved": "True if the operator is approved, false to revoke approval",
          "_operator": "Address to add to the set of authorized operators"
        }
      },
      "tokenURI(uint256)": {
        "details": "Throws if `_tokenId` is not a valid NFT. URIs are defined in RFC  3986. The URI may point to a JSON file that conforms to the \"ERC721  Metadata JSON Schema\"."
      },
      "transferFrom(address,address,uint256)": {
        "details": "Throws unless `msg.sender` is the current owner, an authorized  operator, or the approved address for this NFT. Throws if `_from` is  not the current owner. Throws if `_to` is the zero address. Throws if  `_tokenId` is not a valid NFT.",
        "params": {
          "_from": "The current owner of the NFT",
          "_to": "The new owner",
          "_tokenId": "The NFT to transfer"
        }
      }
    },
    "version": 1
  },
  "userdoc": {
    "kind": "user",
    "methods": {
      "approve(address,uint256)": {
        "notice": "Change or reaffirm the approved address for an NFT"
      },
      "balanceOf(address)": {
        "notice": "Count all NFTs assigned to an owner"
      },
      "getApproved(uint256)": {
        "notice": "Get the approved address for a single NFT"
      },
      "isApprovedForAll(address,address)": {
        "notice": "Query if an address is an authorized operator for another address"
      },
      "name()": {
        "notice": "A descriptive name for a collection of NFTs in this contract"
      },
      "ownerOf(uint256)": {
        "notice": "Find the owner of an NFT"
      },
      "safeTransferFrom(address,address,uint256)": {
        "notice": "Transfers the ownership of an NFT from one address to another address"
      },
      "safeTransferFrom(address,address,uint256,bytes)": {
        "notice": "Transfers the ownership of an NFT from one address to another address"
      },
      "setApprovalForAll(address,bool)": {
        "notice": "Enable or disable approval for a third party (\"operator\") to manage  all of `msg.sender`'s assets"
      },
      "symbol()": {
        "notice": "An abbreviated name for NFTs in this contract"
      },
      "tokenURI(uint256)": {
        "notice": "A distinct Uniform Resource Identifier (URI) for a given asset."
      },
      "transferFrom(address,address,uint256)": {
        "notice": "Transfer ownership of an NFT -- THE CALLER IS RESPONSIBLE  TO CONFIRM THAT `_to` IS CAPABLE OF RECEIVING NFTS OR ELSE  THEY MAY BE PERMANENTLY LOST"
      }
    },
    "version": 1
  }
}